:020000040800F2
:1000000030090020A10100089F1E0008211B0008E4
:100010009D1E0008CD0700081525000800000000FF
:100020000000000000000000000000004D2000085B
:10003000CF07000800000000A11E00084F200008A4
:10004000BB010008BB010008BB010008BB010008A0
:10005000BB010008BB010008BB010008BB01000890
:10006000BB010008BB010008BB010008BB01000880
:10007000BB010008BB010008BB010008BB01000870
:10008000BB010008BB010008BB010008BB01000860
:10009000BB010008BB010008BB010008BB01000850
:1000A000BB010008BB010008BB010008BB01000840
:1000B000BB0100080000000000000000251B000834
:1000C000BB0100080000000000000000BB010008A8
:1000D00000000000BB010008BB0100080000000098
:1000E000BB010008BB010008000000000000000088
:1000F0000000000000000000000000000000000000
:10010000000000000000000000000000BB0100082B
:100110000000000000000000BB010008BB01000857
:10012000BB010008BB010008BB010008BB010008BF
:10013000BB010008000000000000000000000000FB
:10014000BB010008BB010008BB010008BB0100089F
:10015000BB010008BB010008BB010008BB0100088F
:10016000BB010008BB010008BB0100080000000043
:10017000BB010008BB0100080000000000000000F7
:10018000BB010008BB010008BB010008DFF80CD070
:1001900000F00AFB00480047053200083009002043
:1001A0000648804706480047FEE7FEE7FEE7FEE711
:1001B000FEE7FEE7FEE7FEE7FEE7FEE7E5200008D4
:1001C0008D0100082DE9F05F0546002092469B4610
:1001D00088460646814640241BE02846414647465D
:1001E000224600F031FA53465A46C01A914110D3C4
:1001F00011461846224600F018FA2D1A67EB01083E
:100200004F4622460120002100F00FFA17EB0009AB
:100210004E41201EA4F10104DFDC484631462A4647
:10022000434600F000B830BCBDE8C09F2DE9F04166
:100230000024061B254671F1000605DA012400277B
:10024000D0EB070067EB0101161E73F1000605DA1B
:100250000027D2EB0702012567EB0303FFF7B2FF8C
:1002600086460E4617469C46AC4204D00025D0EB8D
:10027000050E65EB010624B10020D2EB000760EB10
:10028000030C704631463A466346BDE8F081D2B26F
:1002900001E000F8012B491EFBD270470022F6E76F
:1002A00010B513460A4604461946FFF7F0FF2046EC
:1002B00010BD2DE9FE4F804681EA0300C00F0C46B9
:1002C000009021F0004123F00045B8EB0200A94165
:1002D00005D24046214690461C460B46024623F076
:1002E0000040104347D0270DC7F30A00C3F30A515B
:1002F0000290401A019040286BDAC3F3130040F4D7
:10030000801B0098924620B10023D2EB030A63EBD6
:100310000B0B01985946C0F14002504600F085F998
:1003200006460D4650465946019A00F09DF910EBDD
:1003300008006141002487EA115284EAE7731A43F6
:1003400040D0009A62B3019A012A4FEA075215DCA5
:10035000001B61EB02014FF0004202EA0752CDE9B7
:100360000042001C41F5801132462B4600F09DF9F9
:1003700003B000F045B840462146F9E7001B61EBA9
:100380000201001C41F5801300185B412018A2F502
:10039000001747EB030140EAD570B6196D4111E033
:1003A0006D084FEA360645EAC0754FEA0752001B52
:1003B00061EB0201001C41F5801149084FEA300051
:1003C0000019514132462B4603B000F01CB800F032
:1003D0005DB90098012240000023D0EB020263EBDC
:1003E000E073009821464FEAE074B8EB000061EB3F
:1003F0000401E9E783F000435BE781F0004158E73F
:1004000030BCBDE8C08F30BCBDE8C04FFFF7DFBFD8
:100410002DE9FE4F81EA030404F0004421F000417D
:1004200000944FF0000B23F0004350EA01045ED02B
:1004300052EA03045BD0C3F30A54C1F30A552C44B7
:10044000A4F2F3340194A0FB0254C1F3130141F46C
:100450008011C3F3130343F4801301FB024400FB38
:10046000034E840A970A44EA815447EA8357A4FB5F
:10047000076802958D0A05FB07854FEA932C04FB5C
:100480000C542705029D4FEA065847EA1637B5EB8C
:1004900008056EEB070C870E920E47EA811742EAB9
:1004A0008312A7FB0201B6EB0B0164EB00042B0DDA
:1004B00043EA0C335E1844EB1C50DA465146E7FB26
:1004C0000201C5F313044FEA0B3343EA14534FEA16
:1004D0000432019C43EA0603A4F10C040294009C3C
:1004E000CDE900B400F0E1F803B000F003B800205B
:1004F0000146F9E730BCBDE8C08F2DE9F04D81EA37
:10050000030404F0004B21F0004514464FF0000AAC
:1005100023F0004150EA050220D054EA01021DD028
:10052000C5F30A570246C5F31303C1F31300C1F321
:100530000A5640F4801543F48013A7EB0608101BFD
:10054000D64608F2FD3873EB050002D308F1010826
:1005500001E092185B41B8F1000F03DA0020014678
:10056000BDE8F08D00204FF48011064684460EE071
:10057000171B73EB050705D3121B63EB050306433B
:100580004CEA010C49084FEA300092185B4150EAEE
:100590000107EDD152EA030012D082EA040083EA97
:1005A0000501084305D0101BAB4106D201220023F0
:1005B00006E000224FF0004302E06FF0010253100A
:1005C0001AEB06004CEB085110EB0A0041EB0B0153
:1005D000BDE8F04D00F05AB800F0004230F00040A5
:1005E0000AD0C10D01F56071C0F3160042EA015155
:1005F000C20840071143704700200146704730B5DC
:100600000B46014600202022012409E021FA02F5D0
:100610009D4205D303FA02F5491B04FA02F528446A
:10062000151EA2F10102F1DC30BD202A04DB203AC4
:1006300000FA02F1002070479140C2F1200320FA35
:1006400003F3194390407047202A04DB203A21FA33
:1006500002F00021704721FA02F3D040C2F12002DB
:100660009140084319467047202A06DBCB17203AF1
:1006700041FA02F043EAE07306E041FA02F3D040A7
:10068000C2F12002914008431946704710B5141E6C
:1006900073F1000408DA401C41F1000192185B413B
:1006A0001A4301D120F0010010BD2DE9F04D924612
:1006B0009B4611B1B1FA81F202E0B0FA80F2203229
:1006C0009046FFF7B2FF04460F4640EA0A0041EAAF
:1006D0000B0153465A46084313D0114653EA010012
:1006E00019D0C8F140025046FFF7AEFF05460E464E
:1006F000504659464246FFF798FF084305D001206F
:1007000004E020463946BDE8F08D0020054346EA66
:10071000E0762C4337430A986305E40AA0EB08000F
:100720000022FD0A44EA47540A3002D5002001465F
:10073000E9E7010510196941DDE90845001969413A
:10074000BDE8F04DA2E7C1F30A52C1F3130140F234
:10075000FF3341F480119A4202DA002001467047CB
:1007600040F233439A42A2F2334202DC5242FFF794
:100770006BBFFFF75ABF000030B5041E71F10004D3
:1007800004DB4FF00044404264EB0101141E73F19E
:10079000000405DB1C464FF00043524263EB0403A8
:1007A000994208BF904230BD064C074D06E0E06814
:1007B00040F0010394E8070098471034AC42F6D3A8
:1007C000FFF7E8FCCC3E0008EC3E0008FEE770476F
:1007D00070B5044600F0E4F80546601C02D00448F9
:1007E0004068044400F0DCF8401BA042FAD370BD1E
:1007F0001C0000202DE9FC4FDFF880A1002301251B
:100800000AF1040B03244FF00F0C0BF1040EAEE0C1
:1008100005FA03F632406FD04F68012F05D0022F42
:1008200003D0112F01D0122F17D1D0F808905F00FC
:1008300004FA07F829EA08090097D1F80C8008FAA9
:1008400007F848EA0908C0F808804768B7430E79F6
:10085000C6F300169E403E434660C6684FEA430812
:1008600004FA08F7BE4301978F6807FA08F7374381
:10087000C7604E68022E01D0122E13D1DE0800EBA5
:1008800086060096366A5F07FF0E0CFA07F926EA1D
:100890000906D1F8109009FA07F949EA0609009EFD
:1008A000C6F820900768019EB7430E7906F003064C
:1008B00006FA08F63E4306604E68F60056D5304EFE
:1008C000376E47F001073766366E23F0030706F0F0
:1008D000010600962B4E3E44B146B6689F074FEA8C
:1008E00017780CFA08F7BE43B0F1904F05D0264FA9
:1008F000B84204D1012708E038E0002705E0234F83
:10090000B84201D1022700E0072707FA08F737436A
:10091000C9F80870DAF800605746D1F804809643A9
:100920005FEAC83800D516433E60DBF800605F46DA
:10093000D1F8048096435FEA883800D516433E60BC
:10094000DEF800607746D1F8048096435FEAC82855
:1009500000D516433E60094F0C373E68D1F804803D
:1009600096435FEA882800D516433E605B1C0A6800
:1009700032FA03F67FF44CAF00F00AB800040140ED
:100980000010024000000140000400480008004838
:100990001CBCBDE8E08F0AB181617047816270477D
:1009A00001488068704700001C00002090F841203A
:1009B000202A24D190F84020012A20D0012280F85A
:1009C0004020242280F841200268136823F00103AC
:1009D00013600268136823F480531360026813687D
:1009E0000B43136001680A6842F001020A6020218B
:1009F00080F84110002180F840100846704702201E
:100A0000704790F84120202A22D190F84020012AF6
:100A10001ED0012280F84020242280F84120026864
:100A2000136823F0010313600268136823F47063F2
:100A300043EA0121116001680A6842F001020A607C
:100A4000202180F84110002180F8401008467047AE
:100A500002207047026891691268436B002B00D036
:100A60001847704770B5040004D094F84100002581
:100A700010B106E0012070BD84F84050204600F01F
:100A8000B3F9242084F841002068016821F00101B5
:100A900001606068216820F07060086120688168EA
:100AA00021F400418160E0680128A06807D040F48B
:100AB000044021688860E068022803D006E040F422
:100AC0000040F6E721684FF4006048602068416804
:100AD000114A114341602068C16821F40041C1609E
:100AE000D4E904010843A16940EA01202168C860F3
:100AF000D4E907010843216808602068016841F0D3
:100B0000010101606564202084F84100256384F8B8
:100B10004250002070BD0000008000022DE9FF4F10
:100B200083B00446DDE9108790F84100DDF8489075
:100B30009A469346202874D15FEA080014D09FB1EA
:100B400094F8400001286CD0012084F84000FFF7A1
:100B500027FF0646012200901923D103204601F009
:100B6000B5F8002871D103E04FF4007060646CE0C8
:100B7000222084F84100402084F84200002565646A
:100B8000C4F8248067856563CDE9009653465A46CC
:100B90002046049901F020F810B184F8405054E048
:100BA000618D3548FF274FF080784FF0007AFF299C
:100BB00004D927853A464346009005E0618D21859A
:100BC000009094F8282053462046049901F068F8D4
:100BD0004B46002204212046009601F077F8A0BB86
:100BE0002068406A616A0870606A401C6062208DFB
:100BF000401E81B22185608D401E6085608DD8B118
:100C0000D1B94B46002280212046009601F05EF8C3
:100C1000D8B9608DFF2805D927853A464346009507
:100C200006E026E0608D2085009594F82820534644
:100C30002046049901F034F8608D0028C8D132466E
:100C40004946204601F06EF818B1012007B000F0C7
:100C500017B821682020C86121684A68074B1A40EC
:100C60004A6084F8410084F8425084F840500020E3
:100C7000ECE70220EAE700000024008000E800FE24
:100C800030BCBDE8C08F00002DE9FF4F83B00446A3
:100C9000DDE9108790F84100DDF848909A469346C8
:100CA000202871D15FEA080014D09FB194F8400069
:100CB000012869D0012084F84000FFF771FE064644
:100CC000012200901923D103204600F0FFFF0028E5
:100CD0006ED103E04FF40070606469E0212084F875
:100CE0004100402084F8420000256564C4F8248057
:100CF00067856563CDE9009653465A4620460499B8
:100D000000F09CFF10B184F8405051E0608DFF2747
:100D10004FF080784FF0007AFF2804D927853A46B3
:100D20004346009505E0608D2085009594F82820C5
:100D300053462046049900F0B3FF32464946204608
:100D400001F016F8A0BB606A216800788862606ACA
:100D5000401C6062608D401E6085208D401E80B208
:100D60002085618DD9B1D0B94B4600228021204623
:100D7000009600F0ABFFD8B9608DFF2805D9278514
:100D80003A464346009506E026E0608D20850095B2
:100D900094F8282053462046049900F081FF608D86
:100DA0000028CAD132464946204600F0BBFF18B1A0
:100DB000012007B000F014B820682021C16120682C
:100DC0004268064B1A40426084F8411084F8425051
:100DD00084F840500020ECE70220EAE700E800FE3B
:100DE00030BCBDE8C08F000010B586B004461421A9
:100DF0006846FFF753FA17492068884228D1164CF5
:100E0000E06C40F00100E064E06C694600F0010035
:100E100005904FF4C06000901220019001200290D4
:100E200003200390042004904FF09040FFF7E2FC71
:100E3000A06D40F40010A065A06D002200F4001029
:100E4000059011461F2000F067F81F2000F056F8AB
:100E500006B010BD005400400010024002488168F6
:100E600042681144816070471C00002010B50024C6
:100E7000032000F071F8002000F008F808B1012408
:100E800001E000F025F8204610BD000070B50E4EC0
:100E900005460024706898B14FF47A71B1FBF0F008
:100EA0000A490968B1FBF0F000F0B6FD40B9102D19
:100EB00006D200222946501E00F02EF8356000E0D0
:100EC0000124204670BD00001C00002028000020E6
:100ED000094808B5016E41F001010166016E01F09B
:100EE00001010091816D41F080518165806D00F0BC
:100EF0008050009008BD000000100240002809DB6F
:100F000000F01F02012191404009800000F1E02023
:100F1000C0F8001170470000F0B40E4B1B680C467F
:100F2000C3F30223C3F10705042D00D90425191DBD
:100F3000072901D2002300E0DB1E012606FA05F195
:100F4000491E214099409E40761E16403143F0BC18
:100F500001F0F6BA0CED00E0064900F0070208685F
:100F60004FF6FF03184040EA0220034A104308608E
:100F7000704700000CED00E00000FA051649B0F5DE
:100F8000007F0868C0F3412009D0022805D0086816
:100F900020F4C06040F480600860002070470128A1
:100FA000FBD0086820F4C06040F4007008600B4873
:100FB0003222006850430A4AB0FBF2F0401C00E0C5
:100FC000401E4A69520501D50028F9D148694005FB
:100FD000E3D5032070470000007000402800002087
:100FE00040420F000248006800F4C06070470000F3
:100FF000007000400248016841F480710160704750
:10100000007000400248016841F00401016070472F
:10101000001002402DE9F84F0446002700889C4D3F
:101020003E46000515D5E06B60B1B0F5000F04D069
:10103000B0F5400F2BD001270AE0E86840F480307B
:10104000E86024E00021201D00F02CFF07001ED0E6
:101050003E462068800338D5A86D4FF00008C000D8
:1010600009D4A86D40F08050A865A86D4FF0010824
:1010700000F080500090DFF81CA2DAF8001041F474
:101080008071CAF80010FFF78BFC814610E0D5F89C
:101090008800E16B20F440000843C5F88800D8E7D9
:1010A000FFF77EFCA0EB0900022801D9032704E02A
:1010B000DAF80000C005F3D5EFB33E46B8F1000FF3
:1010C00003D0A86D20F08050A8652078C00707D015
:1010D000D5F88800216A20F003000843C5F888008D
:1010E0002078800707D5D5F88800616A20F00C00C9
:1010F0000843C5F888002078800607D5D5F8880011
:10110000A16A20F440600843C5F888002088800563
:1011100007D5D5F88800616B20F440200843C5F856
:1011200088002088400509D5D5F88800A16B20F4F7
:101130004010084300E02EE0C5F888002078400603
:1011400007D5D5F88800E16A20F440500843C5F877
:1011500088002088C00507D5D5F88800216B20F4C9
:1011600040300843C5F8880020884FF000678004AD
:101170004FF080684ED5D5F88800216C20F0406093
:101180000843C5F88800206CB8423BD1E86840F4B9
:101190008010E8603EE0D5F8900010F4407014D064
:1011A000216D814211D0D5F89000D5F8901020F42F
:1011B000407041F48031C5F89010D5F8901021F4BA
:1011C0008031C5F89010C5F89000C00711D0FFF726
:1011D000E7FB074641F2883907E000BFFFF7E0FB75
:1011E000C11B494501D9032668E7D5F8900080075F
:1011F000F4D5D5F89000216D20F440700843C5F86F
:1012000090005BE7404505D10121201D00F04AFE1A
:1012100000B106462068400317D5D5F88800616CF8
:1012200020F040600843C5F88800606CB84204D1E3
:10123000E86840F48010E86007E0404505D10121EE
:10124000201D00F02FFE00B106462088400411D575
:10125000D5F88800A16C20F040500843C5F88800FC
:10126000A06CB0F1805F05D10221201D00F01AFEB4
:1012700000B106462088000406D555F8880FE16CB9
:1012800020F0804008432860304600F005B8000098
:10129000001002400070004018BCBDE8E08F000064
:1012A0002DE9F0470F46050058D0404E306800F059
:1012B0000700B84209D2306820F007003843306098
:1012C000306800F00700B84248D12878384CC00791
:1012D0002CD06868032811D0022812D0216898B158
:1012E000490500293ADAA16821F003010143A16010
:1012F000FFF756FB804641F2883910E021688901EA
:10130000EFE721688903ECE78907EAE7FFF748FB85
:10131000A0EB0801494502D90320BDE8F087A06889
:10132000696800F00C00B0EB810FEFD128788007DE
:1013300005D5A068A96820F0F0000843A0603068D7
:1013400000F00700B8420BD9306820F0070038439E
:101350003060306800F00700B84201D00120DCE7BF
:101360002878400705D5A068E96820F4E0600843C4
:10137000A0602878000706D5A068296920F460508D
:1013800040EAC100A06000F03FF8A168094AC1F33B
:101390000311515C01F01F01C8400749086007486C
:1013A0000068BDE8F047FFF771BD00000020024073
:1013B00000100240843E0008280000201C0000208D
:1013C0000548064900688968054AC1F30221515C55
:1013D00001F01F01C84070472800002000100240A3
:1013E000C43E00080548064900688968054AC1F3FB
:1013F000C221515C01F01F01C84070472800002045
:1014000000100240C43E000870B52549002318466C
:101410008A68CC6812F00C0204F00306214C4FEAF3
:10142000640509D00C2A05D0042A32D0082A00D13C
:10143000284670BD012E10D10B681B0704D4D1F8CB
:101440009430C3F3032302E00B68C3F30313164E77
:1014500056F82330DAB10C2AEBD1C86800F003004B
:10146000022818D0032818D01846CA68CB68C2F3DF
:101470000212C3F306234343521CB3FBF2F2C868C3
:10148000C0F34160401C4000B2FBF0F070BD184654
:1014900070BD204670BD2046E7E72846E5E700001E
:1014A000001002400024F400943E00082DE9F843A7
:1014B00004006FD0FE4DA86800F00C06E86800F04C
:1014C00003072078C00664D576B10C2E01D1012F18
:1014D0000AD0A069002828687AD040F0010028606E
:1014E000FFF75EFA80465DE02868800702D5A069B4
:1014F0000028DED0216A2868000703D5286800F09C
:10150000F00004E0D5F89400F02202EA10108142C5
:1015100016D9084600F05CFD00283BD1286840F051
:10152000080028602868216A20F0F000084328603D
:101530006868E16920F47F4040EA0120686016E0B5
:10154000286840F0080028602868216A20F0F00030
:10155000084328606868E16920F47F4040EA012080
:10156000686026B9206A00F033FD0028D5D1FFF766
:101570004BFFA968CF4AC1F30311515C01F01F0171
:10158000C840CD490860CD480068FFF77FFC0028BF
:101590007ED12EE0CAE000BFFFF702FAA0EB080000
:1015A000022876D828688007F6D5286840F0080019
:1015B00028602868216A20F0F000084328606868E5
:1015C000E16920F47F4040EA0120686011E0FFE714
:1015D00020F001002860FFF7E3F9804606E000BF35
:1015E000FFF7DEF9A0EB08000228DAD828688007A8
:1015F000F6D42078C00740D0082E18D00C2E01D188
:10160000032F14D06068B0F5803F17D0B0F5A02F3D
:10161000286817D020F480302860286820F48020C3
:1016200028606068E0B1FFF7BBF9804614E02868E5
:10163000800322D56068002878D01EE0286840F436
:101640008030EDE740F480202860F7E7FFF7A8F945
:10165000A0EB08006428A4D828688003F6D50CE025
:10166000FFF79EF9804605E0FFF79AF9A0EB080026
:10167000642896D828688003F6D4207880073BD564
:10168000042E11D00C2E01D1022F0DD0E06801E004
:10169000B6E1FFE0002828681ED040F48070286082
:1016A000FFF77EF907460CE0286840050CD5E06896
:1016B0000028C1D008E000BFFFF772F9C01B022864
:1016C00093D828684005F7D56868217C20F0F85049
:1016D00040EA016068600FE020F480702860FFF746
:1016E0005FF9074605E000BFFFF75AF9C01B022863
:1016F000B1D828684005F7D42078000729D560695B
:101700000028D5F8940012D040F00100C5F89400EC
:10171000FFF746F9074604E0FFF742F9C01B02282D
:1017200099D8D5F894008007F6D512E02BE120F087
:101730000100C5F89400FFF733F9074605E000BF44
:10174000FFF72EF9C01B022885D8D5F89400800732
:10175000F6D42078400766D5A86D0027C00008D4CD
:10176000A86D40F08050A865A86D012700F080505A
:10177000009053480168C90512D40168814641F4BC
:1017800080710160FFF70CF9804605E0FFF708F96A
:10179000A0EB080002287DD8D9F80000C005F5D5D7
:1017A000A068012816D00528D5F8900017D020F0A1
:1017B0000100C5F89000D5F8900020F0040000BFAB
:1017C000C5F89000A06841F28839C0B1FFF7E8F889
:1017D00080460FE0D5F8900040F00100F0E740F0BF
:1017E0000400C5F89000F5E7FFF7DAF8A0EB080170
:1017F00049454FD8D5F890008007F5D50EE0FFF7A2
:10180000CFF8804606E000BFFFF7CAF8A0EB08015A
:1018100049453FD8D5F890008007F5D41FB1A86D91
:1018200020F08050A8652078800628D5606A0028BE
:10183000D5F8980012D040F00100C5F89800FFF7E5
:10184000AFF8074605E000BFFFF7AAF8C01B022863
:1018500020D8D5F898008007F6D510E020F00100D8
:10186000C5F89800FFF79CF8074604E0FFF798F8E2
:10187000C01B02280ED8D5F898008007F6D4A06ABD
:10188000A8B1022824D00C2E7DD0286820F08070CA
:10189000286000E0B3E02868000103D4E86820F085
:1018A0000300E860E86807490840E8600CE09FE052
:1018B00000100240843E0008280000201C00002088
:1018C00000700040FFFFEEFEFFF76AF8044699E063
:1018D000E868E26A00F00301914226D1216B00F032
:1018E00070020901103991421FD1626B00F4FE4170
:1018F000B1EB022F19D194F8382000F07841B1EB08
:10190000C26F12D1A18F00F4C00249084905A1F5A8
:101910000011914209D194F8401000F0C0604908CC
:101920004906A1F1007181424BD00C2E6FD028687E
:1019300040016CD4286820F080702860FFF730F8F0
:10194000064604E0FFF72CF8801B022857D82868C9
:101950008001F7D4F4E90B016FF00F0202EB0111E3
:101960000843218A5204490802EB4151A26841EA26
:1019700002210843217D4FF07E42490802EB41617C
:101980000843217B00E042E040EAC160E968214A67
:1019900011400843E860286840F080702860E868DB
:1019A00040F08070E860FEF7FBFF044605E000BFF2
:1019B000FEF7F6FF001B022821D828688001F7D522
:1019C00023E02868800120D4286840F080702860D7
:1019D000E86840F08070E860FEF7E2FF044604E04B
:1019E000FEF7DEFF001B022809D828688001F7D522
:1019F0000BE000BFFEF7D4FF001B022802D9032032
:101A0000BDE8F88328688001F4D40020F8E70120BD
:101A1000F6E700008C809D0110B5401EB0F1807F7C
:101A200001D3012010BD4FF0E02460610F21601749
:101A300000F086FD0020A06107202061002010BD7D
:101A400010B5040002D0606F10B107E0012010BD96
:101A5000002084F87000204600F026F824206067FB
:101A60002068016821F001010160204600F0ECFBD4
:101A70000128ECD0606A10B1204600F055FB2068C8
:101A8000416821F4904141602068816821F02A0179
:101A900081602068016841F0010101602046BDE8D5
:101AA000104000F0A5BB0000F0B587B0044614213B
:101AB0006846FEF7F3FB18492068884229D1174889
:101AC000816D41F400318165816D01F40031059132
:101AD000C16C41F00101C164C06C022500F001003D
:101AE0000590042000268DE8610003240720CDE93D
:101AF00003404FF0904769463846FEF77BFEA80347
:101B0000CDE90005CDE90264694604943846FEF744
:101B100071FE07B0F0BD000000440040001002401C
:101B2000FEE700000148FEF795BF000060000020BE
:101B300001688A69D243920701D400228A62006850
:101B40008169C943C90703D0816941F001018161FD
:101B5000704700002DE9F0410446006890460E46AB
:101B60008069C043C00633D40025202720688069DF
:101B7000C043800615D5701CF8D0FEF711FFA0EB0E
:101B80000800B04201D8002EF0D154F8440F40F0C4
:101B9000200044F804096770A57025700120BDE895
:101BA000F08121681020C8612068C7612046FFF7D6
:101BB000BFFF54F8440B4168064A11404160206859
:101BC00040F0040044F820096777A5772577E5E71A
:101BD0000020E4E700E800FE2DE9F843044616463D
:101BE000DDE9089714489846DAB2009000232046B1
:101BF00000F056F83A464946204600F0B9F8B8B920
:101C0000F5B2B8F1010F08D02168300A88623A466F
:101C10004946204600F0ACF850B9206885624B4632
:101C2000002240212046009700F050F8002800D004
:101C30000120BDE8F8830000002000802DE9F84372
:101C40000446164615489846DDE90897DAB2C302FD
:101C50000090204600F024F83A464946204600F01D
:101C600087F8B8B9F5B2B8F1010F08D02168300A89
:101C700088623A464946204600F07AF850B9206812
:101C800085624B46002280212046009700F01EF816
:101C9000002800D00120BDE8F8830000002000806B
:101CA000F0B50568059C68684FF48066064FC1F37F
:101CB000090106EA545641EA02413E431943B04342
:101CC000214308436860F0BDFF63FF032DE9F04145
:101CD0001D4617460E460446DDF8188008E0681CCD
:101CE00006D0FEF75DFEA0EB0800A8420BD855B168
:101CF0002068806936EA000012D00020B842EED099
:101D00000020BDE8F08154F8440F40F0200044F872
:101D10000409202060700020A07020700120F0E7EE
:101D20000120EBE770B516460D4604460DE032463D
:101D300029462046FFF70EFF08B1012070BDFEF7CF
:101D40002FFE801BA84207D835B120688069C043A8
:101D50008006ECD4002070BD54F8440F40F0200001
:101D600044F80409202060700020A0702070E4E78F
:101D700070B516460D4604460FE032462946204609
:101D8000FFF7E8FE08B1012070BD681C05D0FEF722
:101D900007FE801BA84207D835B120688069C04380
:101DA0008007EAD4002070BD54F8440F40F02000B2
:101DB00044F80409202060700020A0702070E2E741
:101DC00010B586B014216846FEF768FA1548C16C54
:101DD00041F00401C164C16C01F004010591C16CC2
:101DE00041F00101C164C16C01F001010591C16CB8
:101DF00041F00201C164C06C0B4C00F00200059080
:101E0000002208212046FEF7C6FD08200090012090
:101E10000021CDE90101039169462046FEF7EAFC65
:101E200006B010BD00100240000400480E4810B576
:101E30000C4901600D49416000210122C0E90212F4
:101E4000016141618161C1610162FEF70BFE002108
:101E50000548FEF7ABFDBDE8104000210248FEF743
:101E6000D0BD00000054004060000020BB7C70002A
:101E70000948084901604FF4E13141600021816067
:101E80000C22C160C0E904128161C161016241623A
:101E9000FFF7D6BD00440040AC000020FEE77047CD
:101EA000704700002DE9F041444C05468846E06843
:101EB0000026810728680DD0E16801F00301814206
:101EC00016D1A8B1E0686968C0F30210401C8842CE
:101ED0000ED120E0012804D0022805D0032807D124
:101EE00008E02168890701E021684905002907DB2E
:101EF00001265FE02168890302D421684903F5E7E0
:101F0000E1686A686FF00F0321F0730103EB0212BE
:101F100011430143E160206820F080602060FEF7FB
:101F20003FFD074605E000BFFEF73AFDC01B022853
:101F300037D820680001F7D4B8F1000F18D0B8F1F5
:101F4000010F1DD0287D4FF07E41400801EB40601D
:101F5000A96840EA01202169194A1140084320611B
:101F6000206840F080602060FEF71AFD07461AE006
:101F7000A868297B000240EAC1602169114AECE7A8
:101F8000288A1149400801EB4050A96840EA012025
:101F900021690E4AE1E700BFFEF702FDC01B0228DF
:101FA00001D9032606E020680001F5D52069A9695A
:101FB000084320613046BDE8F08100000010024077
:101FC000FF80FFF9FF80FF070000E0FFFF809FFF19
:101FD000F8B51C4D06460024A86DC00002D5FFF7D9
:101FE00001F80DE0A86D40F08050A865A86D00F0E4
:101FF00080500090FEF7F6FFA96D21F08051A96591
:10200000B0F5007F04D0802E07D94FF003040AE01A
:10201000802E08D9A02E01D804E001D1022402E0CC
:10202000702E00D101240848016821F007012143E6
:102030000160006800F00700A04201D00120F8BD57
:102040000020F8BD00100240002002407047FEF75B
:1020500005BF000010B5ACB044216846FEF71EF97C
:10206000142126A8FEF71AF9542111A8FEF716F933
:10207000FEF7C0FF1A4850F8901F21F018010160C8
:102080001420009001200290002460210690CDE9E8
:1020900007410221CDE90A100C9010200D90072075
:1020A000CDE90E0168461091FFF700FA0F20269047
:1020B0000320CDE927042994012126A82A94FFF7BB
:1020C000EFF8422011901A941C9411A8FEF7A2FF79
:1020D0004FF40070FEF752FFFEF794FF2CB010BDD6
:1020E000001002400D48016841F4700101600C4885
:1020F000016841F001010160002181600268094B23
:102100001A4002608214C260026822F480220260D7
:1021100081610249C00380390860704788ED00E0A2
:1021200000100240FFFFF6EA90F82410C90706D01D
:1021300001684A68836A22F400321A434A6090F8C0
:102140002410890706D501684A68C36A22F48032E0
:102150001A434A6090F82410490706D501684A6876
:10216000036B22F480221A434A6090F82410090776
:1021700006D501684A68436B22F400421A434A605C
:1021800090F82410C90606D501688A68836B22F48A
:1021900080521A438A6090F82410890606D5016897
:1021A0008A68C36B22F400521A438A6090F82410A4
:1021B000490611D501684A68036C22F480121A435B
:1021C0004A60016CB1F5801F06D101684A68436C12
:1021D00022F4C0021A434A6090F82410090606D57A
:1021E00001684A68806C22F4002202434A6070470A
:1021F000F8B500260446C667FEF7D2FB0546206800
:1022000000686FF07E47000708D52B4600224FF488
:1022100000112046009700F02BF960B92068006893
:1022200040070AD52B4600224FF480012046009734
:1022300000F01EF908B10320F8BD20206067A067F8
:1022400084F870600020F8BD2DE9F0410446006874
:102250002369A268E5691A43636900272B431A437F
:102260007A4903687A4D2B40134303602068426823
:10227000E36822F440521A4342602268A0698A420D
:1022800001D0236A1843936823F4306303439360B7
:10229000704B226870489A420DD1D0F8880010F037
:1022A000030006D0012838D0022834D0032821D1D9
:1022B00035E001251FE0694B9A420BD1D0F8880028
:1022C00010F00C0025D0042827D0082823D00C2893
:1022D00010D124E08A420DD1D0F8880010F440607B
:1022E00017D0B0F5806F18D0B0F5006F13D0B0F5EF
:1022F000406F14D010255A4B00264FF400408A42FC
:1023000045D175B1022D0FD0042D0FD0082D18D155
:102310000FE00025EFE70225EDE70425EBE70825B0
:10232000E9E7FFF74DF803E0184602E0FFF76CF825
:10233000A8B3626802EB4201814202D8B0EB023FCF
:1023400001D901276FE0DFF81C815DB1022D0CD0AF
:10235000042D13D0082DF4D150082905401846F15A
:10236000000105E0FFF72CF80AE050083E49F5E7C8
:102370000023FDF727FFA0F5407150E0FFF744F878
:102380006268010E0302500818187141F0E7E16914
:102390004FF6EF7881422FD1092DD2D200E042E0F2
:1023A000DFE805F006092005230505052600C8E736
:1023B000FFF706F801E0FFF715F84100D4F8040034
:1023C00001EB5001B1FBF0F080B2A0F110014145EA
:1023D000B7D84FF6F0710140C0F3420001432068C6
:1023E000C16020E021496068EAE7FFF70DF8E4E703
:1023F0004FF480316068E3E7092DA2D2DFE805F0F1
:10240000060918051E05050520009AE7FEF7D8FF06
:1024100016E0FEF7E7FF13E080B2A0F1100141459E
:102420008FD82168C860266638466666BDE8F081A8
:10243000606803EB5001B1FBF0F0EDE7FEF7E4FF5D
:10244000616800EB5100B0FBF1F0E5E7008000406F
:10245000F369FFEF003801400010024000440040E3
:102460000024F400FFFC0F00000024F40048E80101
:102470002DE9F0479A4617460E4604464FF00009EC
:102480004FF02008089D39E0681C37D0FEF788FA25
:10249000A0EB0A00A84222D80DB3206801684907C2
:1024A0002CD5C069C043000528D421684FF40060D2
:1024B00008622068016821F4D07101602068816899
:1024C00021F001018160C4F87480C4F87880C4F8F8
:1024D0007C8000BF84F870900320BDE8F0872068FE
:1024E000016821F4D07101602068816821F0010148
:1024F0008160C4F87480C4F87880EBE72068C06914
:1025000036EA000004D00020B842BDD00020E4E745
:102510000120F9E7FEE700000FB4084B10B504A94D
:1025200002AA039800F0F2F8044602A9002000F085
:1025300087FC204610BC5DF814FB0000412E00080B
:102540000907090E002804DB00F1E02080F80014E0
:10255000704700F00F0000F1E02080F8141D704774
:1025600002E008C8121F08C1002AFAD1704770475C
:10257000002001E001C1121F002AFBD170470000BA
:102580002DE9FF5F82B00021DDE90430020DDDF8A6
:1025900040B0034318D044F61050A2F2FF32424339
:1025A0001514119801281FD0A5EB0B00401C5FEA01
:1025B000000A4FF000064E4FDFF83891B046504603
:1025C00015D5CAF1000413E0119801244AA301288B
:1025D00001D16FEA0B010298119AC0E90031C0E9FC
:1025E000024206B000F08EB8CBF10000DFE70446EF
:1025F0000021404A491842EB0450CDE9001012E096
:10260000E00707D032463B4640464946FDF700FF0B
:102610008046894632463B4610461946FDF7F8FE8D
:1026200006460F466410002CEAD1DDE90401DDE91D
:102630000023BAF1000F06DAFDF7EAFE42464B46E8
:10264000FDF7E6FE05E0FDF758FF42464B46FDF775
:1026500054FF04460E460022284BFEF78DF803D89F
:102660004FF0FF30014607E00022254B204631465F
:10267000FDF71FFEFEF767F8102409E0002C0ADBC7
:102680000A220023FDF79EFD039B30321A55641E7B
:1026900050EA0102F2D1641C039AC4F111031444FC
:1026A000119A012A03D0012208430DD10AE0084300
:1026B00004D000204FF0110B119072E7A3EB0B0533
:1026C0006D1E0DE05B4504DD4FF0000205F10105D4
:1026D00004E003DA4FF00002A5F10105002AECD076
:1026E00002981199C0E90231C0E9004579E700007C
:1026F000000014400000F03F300000000000F043F4
:102700000000E03F30BCBDE8C09F00002DE9FF4F56
:1027100095B09B468946064600250FE2252877D1CD
:1027200000242746F84A0121059400E0044316F8E6
:10273000013F203B01FA03F01042F7D130782A28FC
:1027400011D06FF02F033078A0F13002092A16D88B
:10275000059A44F0020402EB820203EB42021044A9
:10276000761C0590EFE759F8042B0592002A03DA4E
:10277000504244F40054059044F00204761C307832
:102780002E2816D116F8010F44F004042A280DD083
:102790006FF02F023078A0F13003092B09D807EB36
:1027A000870302EB4303C718761CF3E759F8047B51
:1027B000761C30786C280FD006DC4C2817D068289F
:1027C0000DD06A2814D104E0742810D07A280FD1D3
:1027D0000DE044F400140AE044F4801401E044F4F1
:1027E00040147278824202D104F58014761C761C63
:1027F000307866280BD013DC582877D009DC002805
:1028000075D04528F6D04628F4D047281AD19DE146
:1028100018E0632835D0642879D0652812D195E175
:10282000702873D008DC6728F1D069286FD06E2833
:102830000DD06F2806D1B5E073282CD0752875D03F
:10284000782874D05A46179990476D1C75E1C4F3E7
:102850000250022809D003280DD0D9F8001004280E
:102860000DD00D6009F1040967E1D9F80010EA17ED
:10287000C1E90052F6E7D9F800100D80F2E70D70BB
:10288000F0E719F8041B8DF8001000208DF8010006
:10289000EA46012003E059F804AB4FF0FF3061072E
:1028A0004FF0000102D40DE008F101018846B94261
:1028B0000FDA8045F8DB1AF808100029F4D108E097
:1028C00008F1010188468142FADB1AF80810002954
:1028D000F6D105985B46A0EB080721463846179AC3
:1028E00000F097FA284400EB080507E04DE029E1E5
:1028F0000DE01AF8010B5A4617999047B8F10108F4
:10290000F7D25B4621463846179A13E142E00A2285
:102910000092C4F302524FF0000A022A08D059F87C
:1029200004CB032A4FEAEC710AD00DE029E02AE03B
:1029300009F1070121F00702F2E802C1914609E01E
:102940000FFA8CFC4FEAEC71042A03D14FFA8CFC8D
:102950004FEAEC71002907DA0A460021DCF1000C8D
:1029600061EB02012D2202E0220504D52B228DF815
:102970000420012203E0E20701D02022F7E790467D
:1029800059E00A2102E010220DE010214FF0000A68
:1029900000910BE010224FF0000A44F004040827D5
:1029A000009203E008224FF0000A0092C4F30252A2
:1029B000022A05D059F804CB0021032A08D009E0E7
:1029C00009F1070121F00702F2E802C1914605E092
:1029D0001FFA8CFC042A01D10CF0FF0C4FF0000808
:1029E000220728D5702806D0009B83F0100353EAF5
:1029F0000A0305D00EE040228DF80420012208E0F1
:102A00005CEA010206D030228DF804208DF8050022
:102A100002229046009B83F0080353EA0A030AD17E
:102A20005CEA010201D1620705D530228DF804204D
:102A30004FF001087F1E582804D034A003900EA840
:102A400002900DE036A0F9E753466046009AFDF784
:102A5000B9FB84460398825C0298401E0290027083
:102A60005CEA0100F0D1029806A9081A00F1200AD8
:102A7000600702D524F4803400E00127574502DDC9
:102A8000A7EB0A0000E0002000EB0A010090059887
:102A90004144401A0590E00306D45B462146179A4C
:102AA000059800F0B6F90544002706E001A85A464B
:102AB000C05D179990476D1C7F1C4745F6DBE0030E
:102AC0000CD55B462146179A059800F0A2F90544FB
:102AD00004E030205A46179990476D1C0099481E13
:102AE00000900029F5DC08E0029802995A46007827
:102AF000491C0291179990476D1CBAF10001AAF187
:102B0000010AF1DC65E100000928010030313233AF
:102B10003435363738396162636465660000000019
:102B20003031323334353637383941424344454603
:102B30000000000000F05BF90544761C30780028A6
:102B40007FF4ECAD19B0284600F04EB9620700D40E
:102B5000062709F1070222F0070CFCE80223E146F0
:102B600003F000485FEA080C02D00FF2702C0DE071
:102B70005FEA045C02D50FF2682C07E05FEAC47CD0
:102B800002D00FF2602C01E0AFF2700C4FF0FF3872
:102B900023F00043CDF850C065280CD006DC452852
:102BA00009D046281DD047283DD13DE0662818D0E1
:102BB00067287ED138E00021112F01DB112000E0D1
:102BC000781CCDE9000106A90EA8FFF7D9FCDDE9C4
:102BD0000F010E9A03910021009207F1010A04915E
:102BE0004DE04FF000400097CDE9011006A90EA876
:102BF000FFF7C6FCDDE90F0203920E9B119900223C
:102C0000DDF80CA00093049211B9791C00EB010AC5
:102C1000B7EB0A0004D4C0F1FF3007F1010A0490B9
:102C2000AAEB0700019044E0012F00DA0127002100
:102C3000112F01DD112000E03846CDE9000106A981
:102C40000EA8FFF79DFCDDE90F010E9A039100210C
:102C500004910092BA4621070CD40399514500DA39
:102C60008A46BAF1010F05DD009AAAF10101515C13
:102C7000302908D0B84202DA10F1040F06DA012137
:102C8000CDE9011015E0AAF10101E9E7002805DC12
:102C9000049901440491AAEB000102E0411C514552
:102CA00000DD8A460499401A401C01904FF0004014
:102CB0000290200704D40198504501DBCDF8048030
:102CC00000208DF84F0002980DF14F07B0F1004F32
:102CD00025D02B200E9002984FF0020800280CDA25
:102CE000404202902D200E9007E00A210298FDF745
:102CF00086FC3031029007F8011DB8F10001A8F1FF
:102D00000108F2DC02980028EFD1791E0E980870B5
:102D1000307800F0200040F0450007F8020D12A8BE
:102D2000C01B00F107081498007800B1012000EBE7
:102D30000A01019801EBE07105984144401A401ED8
:102D40000590E00306D45B462146179A059800F0EB
:102D500060F805441498007818B15A4617999047BE
:102D60006D1CE00324D55B462146179A059800F0B8
:102D700050F805441CE00498002807DBDDE9030156
:102D8000884203DD0098405C179901E017993020D4
:102D90005A469047049805F10105401C049001989B
:102DA000401E019004D12E205A46179990476D1C61
:102DB000BAF10001AAF1010ADDDC05E017F8010B08
:102DC0005A46179990476D1CB8F10001A8F1010807
:102DD000F4DC5B462146179A0598ABE62D0000000F
:102DE0002B0000002000000030BCBDE8C08F2DE9A2
:102DF000F041044600251E461746880404D405E029
:102E000039462020B0476D1C641EF9D52846BDE820
:102E1000F0812DE9F041044600251E469046C80386
:102E200001D5302700E02027880404D505E041467D
:102E30003846B0476D1C641EF9D52846BDE8F081C0
:102E40000A68531C0B6010707047F8B50546808CFB
:102E50000C46762801D0772857D1012305F132029C
:102E6000D021284600F098FAE8BB95F8320058289F
:102E700001D0602849D1B622E021284600F034FC78
:102E800088BB01236A46F321284600F085FA002812
:102E9000F7D19DF80000C007F3D1284600F024FACE
:102EA000002833D095F83200602804D1284600F07D
:102EB00088FA00282AD060796178400140EA8100D0
:102EC000C2B2F521284600F00FFC60B92078012835
:102ED00001D100202070E078A178400140EA810013
:102EE0002178084300E010E0C6B295F8320060286F
:102EF00005D12279F221284600F0F6FB28B93246A6
:102F0000F421284600F0F0FB08B10020F8BD0120B4
:102F1000F8BD03210170002242708170C1700171FF
:102F2000417170472DE9FC41044690F8320090460B
:102F30000F461E46602804D00EB1002018600026FF
:102F400002E00EB1082300E006236A46F72120467E
:102F500000F022FA10B10020BDE8FC819DF80000CD
:102F60009DF8042001039DF80100238841EA001127
:102F70009DF80200B4F9025041EA10119DF80300D7
:102F8000000340EA02109DF8052040EA1210C2102A
:102F9000A2EB4302C3EB20104043B4F904306A4370
:102FA0000013D212584302EBA03505EB85008030A8
:102FB000001238602A46204600F072F8C8F8000077
:102FC000AEB3BDF80600E18B40BA8003A0EB015020
:102FD000A5F59635B4F92010227F01FB150094F970
:102FE00022106A4369434FF40043891203EBE22243
:102FF00051439A0102EBA121B4F91A2000F5804057
:10300000514301F50051C01389134843C11349438B
:10301000227EC9115143B0EB211001D5002004E0FC
:103020004FF0C851884200DD08460013306001208F
:1030300092E70000FEB51C0015460E4601D002AB1B
:1030400000E0002301AA6946FFF76CFF00281FD0AB
:103050009DED000ADFED0F0AB8EEC00A80EE201ADF
:10306000DFED0D0A86ED001A9DED010AB8EE400A6B
:1030700020EE200A85ED000A4CB19DED020ADFED3D
:10308000070AB8EE400A20EE200A84ED000A01206B
:10309000FEBD00000000C8420000803B0000803AF6
:1030A0002DE9F05F04468B465349D0175118A1FB18
:1030B0000123B4F9106040F1FF30A2FB069C00FB35
:1030C000013301FB0033F71703FB06C602FB076859
:1030D000B4F90E504FF0000AA5FB017CEE1706FB79
:1030E00001C605FB00656E0446EAD7367F0417EB80
:1030F000090546EB0806B4F90C701AEB050546EB1A
:10310000C709B4F90A60A2FB06C803FB06834FEAAD
:10311000E67702FB0732B4F908604FEA1C23A6FBEE
:1031200001C84FEAE67707FB018106FB00104FEA72
:10313000003143EA02634FEA0C3041EA1C5118188F
:1031400041EB2222001C42F50043E288A0FB0276FC
:1031500003FB026200FB0A204210C31752EA03007D
:1031600047D0CBF58010C117C907C607751B41EAC8
:10317000500140F63546A5FB060C61EB090101FB49
:1031800006C1002705FB0711FDF750F8B4F916300A
:10319000420B42EAC142A3FB027CDD1705FB02C5DC
:1031A0004E1303FB0653A7FB025C03FB02C207FBA3
:1031B00006226B0E43EAC2135616B4F91420A2FB82
:1031C000007CD51705FB00C502FB0155FA0CC018A1
:1031D00042EA45327141801841EBE5414FEA102047
:1031E00040EA0160B4F912104FEA0111401800F0F2
:1031F00005B80020FBE70000000CFEFF30BCBDE876
:10320000C09F000090B0FDF731FEFEF723FFFEF7F0
:10321000D7FDFEF70BFEFEF72BFE28480546FFF70D
:1032200078FE264876212C384FF47A74818400F198
:103230003401816202E02046FDF7CAFA1F482946A0
:103240002C38FFF702FE0028F5D000F043F92046A5
:10325000FDF7BEFA1A4B1948A3F10802111D2C38CC
:10326000FFF7E8FE0028F2D0154808384068FDF75F
:10327000B3F99FED141B53EC112BFDF7C9F89FED2B
:10328000131B53EC112BFDF714F841EC100B11A19B
:1032900053EC102B6846FFF73FF9002000F00AF9C5
:1032A0000121002000F076F90E480123D0E9001238
:1032B000684600F003FA00F073F9C8E758000020F0
:1032C00008000020CDCCCCCCCCCCFC3F00000000D2
:1032D0000000404054656D703A20252E326620462D
:1032E000000000001400002010B5044602468821AA
:1032F00000F0A3F800284DD0A21C8A21204600F03F
:103300009CF8E8B3221D8C21204600F096F8B8B353
:10331000A21D8E21204600F090F888B304F1080227
:103320009021204600F089F850B304F10A0292215E
:10333000204600F082F818B304F10C0294212046D4
:1033400000F07BF8E0B104F10E029621204600F077
:1033500074F8A8B104F110029821204600F06DF82D
:1033600070B104F112029A21204600F066F838B1DB
:1033700004F114029C21204600F05FF800B100E047
:1033800008E004F116029E21204600F056F808B12C
:10339000012010BD002010BD3EB514460A46818CA8
:1033A0004FF6FF75CDE9004305EA410141F288354A
:1033B0000295806A0123FDF7B1FB002800D00120AF
:1033C0003EBD1CB50446012300F11802A121FFF700
:1033D000E3FF10BB04F11A02E121204600F02DF8B2
:1033E000D8B1012304F11C02E3212046FFF7D4FFEA
:1033F00098B96A46E421204600F01FF868B101AA96
:10340000E521204600F019F838B1012304F1220229
:10341000E7212046FFF7C0FF08B100201CBDBDF822
:103420000000C1B2C0F3032040EA0110E083BDF800
:1034300004000009208401201CBD7FB51446828C45
:103440004FF6FF7303EA420541F28836022303AACE
:103450008DE84C000A46806A01232946FDF75EFB91
:1034600010B1002004B070BDBDF80C002080012018
:10347000F8E7000070B5802813D2402911D20B4B19
:10348000012401F007051E79AC40094BC90800EB87
:10349000C1100EB132B101E0012A03D0195CA14381
:1034A000195470BD195C2143FAE700000C0000209C
:1034B0002C01002010B5064A00214FF4806328B18A
:1034C000FF245454491C9942F9D310BD0024F8E755
:1034D0002C01002010B56420FDF77AF9AE2000F031
:1034E000CBF8B02000F0C8F8C82000F0C5F80020E4
:1034F00000F0C2F8102000F0BFF8402000F0BCF847
:10350000812000F0B9F8FF2000F0B6F8A12000F00B
:10351000B3F8A62000F0B0F8A82000F0ADF83F20E6
:1035200000F0AAF8A42000F0A7F8D32000F0A4F837
:10353000002000F0A1F8D52000F09EF8F02000F067
:103540009BF8D92000F098F8222000F095F8DA20B6
:1035500000F092F8122000F08FF8DB2000F08CF8D9
:10356000202000F089F88D2000F086F8142000F06B
:1035700083F8AF2000F080F80020FFF79BFF00F0F9
:103580000FF803480021018041800121417110BDE5
:103590000C000020014A1080518070470C00002070
:1035A00070B50C4D002400BF04F1B000C0B200F0B3
:1035B00063F8002000F060F8102000F05DF805EBE3
:1035C000C410802100F06AF8641CE4B2082CEBD32C
:1035D00070BD00002C0100202DE9FF4F934600989C
:1035E000A0F1200ABAF15F0F0CD22048CEB20288B7
:1035F0003244802A06D881464088C1F307273844E0
:10360000402803D9002004B000F032B8002521E0A2
:103610001AFB07503BF81080002418E099F80210BC
:1036200008FA04F001EB45010004C9B205D599F888
:103630000000039A2044C0B206E0039A9AB1002227
:1036400099F800002044C0B2FFF714FF641CA642A2
:10365000E4D86D1CAF42DBD8B9F800103144A9F8AA
:1036600000100098CFE70122EAE700000C000020DC
:1036700030BCBDE8C08F000001B584B001214FF01F
:10368000FF3204A88DE807000B460022782102488B
:10369000FDF7FAFA05B000BD600000200EB54FF04E
:1036A000FF3289B28DE807000123402278210248C9
:1036B000FDF7EAFA0EBD000060000020F0B51D46DF
:1036C0000E46174604460AE02B463A463146FFF7B7
:1036D00083FF2178884201D0C8B2F0BD641C2078F5
:1036E0000028F1D1C0B2F0BD37B5828C4FF6FF7320
:1036F00003EA420484B042F21075012306AA8DE861
:103700002C000A46806A2146FDF7BEFA002800D048
:10371000012007B030BD00000000000000000000E4
:103720000000000000000000000000100010001069
:103730000010001000100000001000000000002821
:103740000028002800000000000000000000000029
:10375000000000240024007C00240048007C004875
:1037600000480000000000380054005000380014E9
:10377000005400540038001000000020005400588D
:103780000030002800540014000800000000001061
:1037900000280028001000340048004800340000D1
:1037A00000000010001000100000000000000000E9
:1037B0000000000000000008001000200020002091
:1037C0000020002000200010000800200010000849
:1037D0000008000800080008000800100020001081
:1037E0000038001000280000000000000000000069
:1037F00000000000000000100010007C001000100D
:1038000000000000000000000000000000000000B8
:103810000000000000100010001000000000000078
:103820000000000000380000000000000000000060
:103830000000000000000000000000000010000078
:103840000000000800080010001000100010002008
:1038500000200000000000380044004400540044F0
:103860000044004400380000000000100030005008
:1038700000100010001000100010000000000038C0
:10388000004400440004000800100020007C0000F8
:103890000000003800440004001800040004004444
:1038A0000038000000000008001800280028004828
:1038B000007C0008000800000000007C0040004080
:1038C00000780004000400440038000000000038C4
:1038D00000440040007800440044004400380000E8
:1038E0000000007C000400080010001000200020F0
:1038F000002000000000003800440044003800446C
:103900000044004400380000000000380044004437
:103910000044003C000400440038000000000000A7
:103920000000001000000000000000000010000077
:103930000000000000000000001000000000000077
:1039400000100010001000000000000C00300040CB
:103950000030000C0000000000000000000000002B
:10396000007C0000007C000000000000000000005F
:103970000000006000180004001800600000000053
:10398000000000380044000400080010001000008F
:1039900000100000000000380044004C0054005C9F
:1039A00000400040003800000000001000280028FF
:1039B00000280028007C004400440000000000783B
:1039C00000440044007800440044004400780000B3
:1039D0000000003800440040004000400040004427
:1039E000003800000000007000480044004400441B
:1039F00000440048007000000000007C00400040CF
:103A0000007C004000400040007C00000000007C82
:103A100000400040007800400040004000400000AE
:103A200000000038004400400040005C00440044B6
:103A3000003800000000004400440044007C0044C2
:103A40000044004400440000000000380010001052
:103A500000100010001000100038000000000004EA
:103A600000040004000400040004004400380000C6
:103A7000000000440048005000600050004800482A
:103A800000440000000000400040004000400040B2
:103A900000400040007C000000000044006C006C0E
:103AA000005400440044004400440000000000446E
:103AB0000064006400540054004C004C00440000BA
:103AC0000000003800440044004400440044004426
:103AD00000380000000000780044004400440078F2
:103AE0000040004000400000000000380044004456
:103AF00000440044004400540038000400000078F2
:103B0000004400440044007800480048004400009D
:103B10000000003800440040003000080004004469
:103B2000003800000000007C0010001000100010A1
:103B30000010001000100000000000440044004489
:103B400000440044004400440038000000000044E9
:103B50000044004400280028002800100010000045
:103B6000000000440044005400540054006C00283D
:103B70000028000000000044002800280010001069
:103B800000280028004400000000004400440028F1
:103B90000028001000100010001000000000007C41
:103BA000000400080010001000200040007C00000D
:103BB000000000180010001000100010001000108D
:103BC000001000100018002000200010001000104D
:103BD0000010000800080000000000300010001075
:103BE0000010001000100010001000100030001035
:103BF0000028002800440000000000000000000031
:103C000000000000000000000000000000000000B4
:103C10000000000000FE0020001000000000000076
:103C2000000000000000000000000000000000385C
:103C30000044003C0044004C003400000000004000
:103C40000040005800640044004400640058000034
:103C50000000000000000038004400400040004424
:103C6000003800000000000400040034004C004450
:103C70000044004C00340000000000000000003848
:103C80000044007C00400044003800000000000CAC
:103C90000010007C00100010001000100010000048
:103CA0000000000000000034004C00440044004CC0
:103CB00000340004007800400040005800640044D4
:103CC00000440044004400000000001000000070A8
:103CD0000010001000100010001000000000001084
:103CE0000000007000100010001000100010001004
:103CF00000E00040004000480050006000500048D4
:103D000000440000000000700010001000100010BF
:103D100000100010001000000000000000000078FB
:103D200000540054005400540054000000000000EF
:103D300000000058006400440044004400440000B7
:103D4000000000000000003800440044004400442B
:103D5000003800000000000000000058006400442B
:103D6000004400640058004000400000000000349F
:103D7000004C00440044004C0034000400040000E7
:103D80000000005800640040004000400040000077
:103D9000000000000000003800440030000800442B
:103DA00000380000000000200020007800200020E3
:103DB0000020002000180000000000000000004467
:103DC000004400440044004C0034000000000000A7
:103DD00000000044004400280028002800100000D3
:103DE000000000000000005400540054006C002843
:103DF000002800000000000000000044002800101F
:103E000000100028004400000000000000000044F2
:103E1000004400280028001000100010006000007E
:103E20000000007C0008001000200040007C000022
:103E300000000018001000100010002000200010EA
:103E400000100010001800100010001000100010EA
:103E500000100010001000100010003000100010C2
:103E600000100008000800100010001000300000D2
:103E7000000000000074004C000000000000000082
:103E80000000000000000000000000000102030428
:103E900006070809A0860100400D0300801A0600ED
:103EA00000350C0040420F0080841E0000093D00D8
:103EB00000127A000024F40000366E010048E80188
:103EC000006CDC020000000001020304EC3E00086C
:103ED000000000202C00000060250008183F0008AA
:103EE0002C000020040900007025000800000000DC
:103EF00000000000000000000000000000000000C2
:103F0000070A00001637000810000000010000003A
:083F10000000000000093D0063
:040000050800018D61
:00000001FF
